:020000040800F2
:100000005010002045010008C31A0008791A0008A2
:10001000C11A0008C30700086B1D0008000000009B
:100020000000000000000000000000005701000870
:10003000B50A0008000000005B010008E51A00088E
:100040005F0100085F0100085F0100085F01000810
:100050005F0100085F0100085F0100085F01000800
:100060005F0100085F0100085F0100085F010008F0
:100070005F0100085F0100085F0100085F010008E0
:100080005F0100085F0100085F0100085F010008D0
:100090005F0100085F0100085F0100085F010008C0
:1000A0005F0100085F0100085F0100085F010008B0
:1000B0005F0100085F0100085F0100085F010008A0
:1000C0005F0100085F0100085F0100085F01000890
:1000D0005F0100085F0100085F0100085F01000880
:1000E0005F0100085F0100085F0100085F01000870
:1000F0005F0100085F0100085F0100085F01000860
:100100005F0100085F0100085F0100085F0100084F
:100110005F0100085F0100085F0100085F0100083F
:100120005F0100085F0100085F0100085F0100082F
:10013000DFF80CD000F012FB0048004759260008F9
:10014000501000200648804706480047FEE7FEE7BB
:10015000FEE7FEE7FEE7FEE7FEE7FEE7FEE7FEE777
:10016000511B000831010008202A04DB203A21FA43
:1001700002F00021704721FA02F3D040C2F12002C0
:10018000914008431946704770B521F0004303437E
:100190000CD0C1F30A550024D5EB040564EB04032D
:1001A000D617AD1AB34102DB0020014670BD2018FE
:1001B00041EB025170BD0EB5C10F80EAE0700844FA
:1001C000CA07002140F233438DE80E000A460B4671
:1001D00000F0BEF803B000BD00F0004230F0004077
:1001E0000AD0C10D01F56071C0F3160042EA015159
:1001F000C20840071143704700200146704701F0D4
:10020000004330B421F0004150EA010206D00A0D4B
:10021000A2F56072C1F31301002A02DC30BC002099
:100220007047440F44EAC104C100E01830BC00EB41
:10023000C25000F047B830B50B46014600202022DE
:10024000012409E021FA02F59D4205D303FA02F5E3
:10025000491B04FA02F52844151EA2F10102F1DC43
:1002600030BD2DE9F05F0546002092469B4688464A
:100270000646814640241BE0284641464746224622
:10028000FFF772FF53465A46C01A914110D31146E8
:100290001846224600F074FA2D1A67EB01084F4603
:1002A00022460120002100F06BFA17EB00094E41B5
:1002B000201EA4F10104DFDC484631462A464346AD
:1002C000BDE8F09F0029A8BF7047401C490008BF47
:1002D00020F00100704710B4B0FA80FC00FA0CF076
:1002E00050EA010404BF10BC704749B1CCF12004AE
:1002F00021FA04F411FA0CF118BF0121214308433B
:10030000A3EB0C01CB1D4FEA00614FEA102042BF66
:10031000002010BC704700EBC35010440029A4BF5C
:1003200010BC7047401C490008BF20F0010010BC01
:10033000704710B5141E73F1000408DA401C41F137
:10034000000192185B411A4301D120F0010010BD59
:100350002DE9F04D92469B4611B1B1FA81F202E0CF
:10036000B0FA80F22032904600F00AFA04460F46B6
:1003700040EA0A0041EA0B0153465A46084313D0AB
:10038000114653EA010019D0C8F140025046FFF768
:10039000EBFE05460E4650465946424600F0F0F93F
:1003A000084305D0012004E020463946BDE8F08D21
:1003B0000020054346EAE0762C4337430A9863055C
:1003C000E40AA0EB08000022FD0A44EA47540A3080
:1003D00002D500200146E9E7010510196941DDE970
:1003E000084500196941BDE8F04DA2E72DE9FE4F2F
:1003F000804681EA0300C00F0C46009021F00041C6
:1004000023F00045B8EB0200A94105D24046214641
:1004100090461C460B46024623F00040104347D04E
:10042000270DC7F30A00C3F30A510290401A019046
:1004300040286BDAC3F3130040F4801B0098924607
:1004400020B10023D2EB030A63EB0B0B0198594652
:10045000C0F14002504600F093F906460D46504662
:100460005946019A00F09BF910EB08006141002405
:1004700087EA115284EAE7731A4340D0009A62B3C4
:10048000019A012A4FEA075215DC001B61EB0201B9
:100490004FF0004202EA0752CDE90042001C41F54C
:1004A000801132462B46FFF753FF03B0BDE8F08FB3
:1004B00040462146F9E7001B61EB0201001C41F5B3
:1004C000801300185B412018A2F5001747EB0301C9
:1004D00040EAD570B6196D4111E06D084FEA360655
:1004E00045EAC0754FEA0752001B61EB0201001C90
:1004F00041F5801149084FEA300000195141324658
:100500002B4603B0BDE8F04FFFF713BF0098012260
:1005100040000023D0EB020263EBE0730098214619
:100520004FEAE074B8EB000061EB0401E9E783F007
:1005300000435BE781F0004158E72DE9FE4F81EA77
:10054000030404F0004421F0004100944FF0000B3C
:1005500023F0004350EA01045ED052EA03045BD06A
:10056000C3F30A54C1F30A552C44A4F2F3340194A2
:10057000A0FB0254C1F3130141F48011C3F3130330
:1005800043F4801301FB024400FB034E840A970AE4
:1005900044EA815447EA8357A4FB076802958D0A11
:1005A00005FB07854FEA932C04FB0C542705029D9D
:1005B0004FEA065847EA1637B5EB08056EEB070C0D
:1005C000870E920E47EA811742EA8312A7FB0201C7
:1005D000B6EB0B0164EB00042B0D43EA0C335E1801
:1005E00044EB1C50DA465146E7FB0201C5F3130405
:1005F0004FEA0B3343EA14534FEA0432019C43EAB7
:100600000603A4F10C040294009CCDE900B4FFF7AA
:100610009FFE03B0BDE8F08F00200146F9E72DE909
:10062000F04D81EA030404F0004B21F0004514462C
:100630004FF0000A23F0004150EA050220D054EAAE
:1006400001021DD0C5F30A570246C5F31303C1F3D7
:100650001300C1F30A5640F4801543F48013A7EB4E
:100660000608101BD64608F2FD3873EB050002D3CE
:1006700008F1010801E092185B41B8F1000F03DABC
:1006800000200146BDE8F08D00204FF480110646A1
:1006900084460EE0171B73EB050705D3121B63EBB3
:1006A000050306434CEA010C49084FEA3000921852
:1006B0005B4150EA0107EDD152EA030012D082EA11
:1006C000040083EA0501084305D0101BAB4106D2A4
:1006D0000122002306E000224FF0004302E06FF009
:1006E000010253101AEB06004CEB085110EB0A0004
:1006F00041EB0B01BDE8F04DFFF71BBEC1F30A5201
:10070000C1F3130140F2FF3341F480119A4202DA3F
:1007100000200146704740F233439A42A2F233422E
:1007200002DC5242FFF720BD00F02AB830B5041EAB
:1007300071F1000404DB4FF00044404264EB01011E
:10074000141E73F1000405DB1C464FF000435242B7
:1007500063EB0403994208BF904230BD064C074D3D
:1007600006E0E06840F0010394E807009847103481
:10077000AC42F6D3FFF7E0FC90270008B027000852
:10078000202A04DB203A00FA02F100207047914051
:10079000C2F1200320FA03F3194390407047202A46
:1007A00006DBCB17203A41FA02F043EAE07306E099
:1007B00041FA02F3D040C2F12002914008431946A9
:1007C0007047FEE706E00021491CC9B20A29FBD3A5
:1007D000401E80B20028F6D1704770B5054600F083
:1007E00087F80024285D00F033F9641CE4B2082C7B
:1007F000F8D3442000F02CF94FF47A7000F05BF944
:1008000000F076F80024285D00F022F9641CE4B2C0
:10081000082CF8D3BE2000F01BF900F0D9F80446EC
:1008200000F0D6F8000200B220436FF00304002865
:100830000ADAC043401CFFF7BEFC2246FFF7A4FCC7
:10084000BDE87040FFF7DBBCFFF7B5FC2246FFF7C1
:100850009BFCBDE87040FFF7D2BC10B500F0EEF88D
:10086000442000F0F5F84FF47A7000F024F900F01D
:10087000E5F8BE2000F0ECF800F0AAF8044600F01D
:10088000A7F8000200B220436FF0030400280ADA40
:10089000C043401CFFF78FFC2246FFF775FCBDE804
:1008A0001040FFF7ACBCFFF786FC2246FFF76CFC5C
:1008B000BDE81040FFF7A3BC08B50B48816941F0C3
:1008C00004018161806900F00400009000F028F8C4
:1008D00001220821054800F008FA00F095F8BDE86B
:1008E000084000F02BB80000001002400008014052
:1008F00010B500F089F800F021F8BDE8104055204F
:1009000000F0A6B81FB5082000900020019001203B
:1009100002906946014800F0D9F81FBD0008014067
:100920001FB5082000900120019003200390694624
:10093000014800F0CBF81FBD0008014070B500244D
:10094000FFF7E0FF124D04E0641CE4B20120FFF762
:1009500039FF0821284600F0C1F908B1642CF3D30F
:10096000642C01D3012070BD002404E0641CE4B2B7
:100970000120FFF727FF0821284600F0AFF908B94A
:10098000F02CF3D3F02C01D3012070BD002070BDFA
:100990000008014010B5FFF7C3FF0C4C00220821EE
:1009A000204600F0A2F90A20FFF70CFFFFF7AAFF8C
:1009B0000821204600F092F9012805D000242D20BE
:1009C000FFF700FF204610BD0124F8E700080140B2
:1009D00070B500250024FFF7DDFFA0402843C5B215
:1009E000641CE4B2082CF6D3284670BD70B50546E9
:1009F000332000F02DF80024FFF7EAFF2855641C8F
:100A0000E4B2082CF8D370BD10B5FFF789FF0A4C8B
:100A100000220821204600F068F940F2EE20FFF79E
:100A2000D1FE01220821204600F05FF9BDE8104008
:100A30000F20FFF7C7BE00000008014010B5FFF708
:100A4000E3FFFFF77BFFBDE81040CC20AFF3008051
:100A500070B50546FFF764FF0024154E05F0010050
:100A60006D0880B100220821304600F03EF90820D0
:100A7000FFF7A8FE01220821304600F036F93A209F
:100A8000FFF7A0FE0FE000220821304600F02DF90C
:100A90004620FFF797FE01220821304600F025F995
:100AA0000220FFF78FFE641CE4B2082CD6D370BD81
:100AB00000080140FEE731B500F01EF9044600F0E1
:100AC0001BF90099001B8842F9D338BD2DE9F84F76
:100AD00000230024DFF8DC914FF00F0809F1040A2D
:100AE0000AF1040B0BF1040E0127A7400A683A40F3
:100AF000BA4275D1DFF8C0C14D68A5EB0C0665455B
:100B00002BD00DDC032D34D005DC35B3012D19D0ED
:100B1000022D2FD11BE0112D16D0122D2AD119E054
:100B2000B6F5881F19D006DCB6F5803F15D0B6F5AE
:100B3000801F1FD111E0B6F5001F0ED0B6F5041FBF
:100B400018D10AE0CB6815E0CB681B1D12E0CB681A
:100B500008330FE0CB680C330CE08B6823B1012B1A
:100B600004D00823476105E0042303E0082307615C
:100B700000E00023FF2A01D8054601E000F104054A
:100B800002D84FEA840603E0A4F108064FEA86067D
:100B90002F6808FA06FC27EA0C0703FA06F647EA6C
:100BA00006072F604D68ED007ED5444DAE6946F0D6
:100BB0000106AE61AD6905F001050095404D24F0D8
:100BC00003067719BE68A5072D0F08FA05FC26EA6B
:100BD0000C06DFF8F0C0604503D14FF0000C25E0B3
:100BE00062E0DFF8E4C0604502D14FF0010C1DE087
:100BF000DFF8D8C0604502D14FF0020C16E0DFF8F4
:100C0000D0C0604502D14FF0030C0FE0DFF8C4C044
:100C1000604502D14FF0040C08E0DFF8BCC060452D
:100C200002D14FF0050C01E04FF0060C0CFA05FC68
:100C30004CEA060CC7F808C04D68ED0305D5D9F895
:100C400000501543C9F8005004E0D9F8005095430E
:100C5000C9F800504D68AD0305D5DAF800501543CA
:100C6000CAF8005004E0DAF800509543CAF8005082
:100C70004D68ED0205D5DBF800501543CBF8005068
:100C800004E0DBF800509543CBF800504D68AD020E
:100C900005D5DEF800501543CEF8005004E0DEF82C
:100CA00000509543CEF80050641C102CFFF41CAF8C
:100CB000BDE8F88F00040140000011100010024050
:100CC0000000014000080140000C014000100140FC
:100CD0000014014000180140001C014080680842D7
:100CE00001D00120704700207047002A01D0016127
:100CF00070470904016170470148006870470000AF
:100D00000400002002480168491C0160704700008F
:100D10000400002010B50748016841F0100101608F
:100D2000032000F069F8002000F006F800F016F843
:100D3000002010BD0020024010B5044600F0CAF9A2
:100D40004FF47A72B0FBF2F000F0B5FD00222146BC
:100D5000501E00F031F8002010BD000008B5154805
:100D6000816941F001018161806900F0010000901A
:100D7000052000F041F8002211466FF00B0000F052
:100D80001BF8002211466FF00A0000F015F800224F
:100D900011466FF0090000F00FF800221146101FF5
:100DA00000F00AF80022BDE808401146501E00F08D
:100DB00003B8000000100240F0B40D460D4B1B6854
:100DC000C3F30223C3F10704042C00D90424191D22
:100DD000072901D2002300E0DB1E012606FA04F1F8
:100DE000491E294099409E40761E16403143F0BC72
:100DF00000F068BE0CED00E000F00701054A106845
:100E00004FF6FF03184040EA0120034908431060F1
:100E1000704700000CED00E00000FA052DE9F047F6
:100E200004460F46DFF8A492D9F80000A84D00F060
:100E300007010120430446064FF0020C41F28838B6
:100E4000B9426FD2D9F8001021F007013943C9F82F
:100E50000010D9F8001001F00701B94201D0BDE837
:100E6000F0872178890705D56968A26821F0F0012B
:100E7000114369602178C90761D0616801290BD0ED
:100E800002291FD09CFAACF2B2FA82F242F02002A0
:100E900052092DD02A682CE093FAA3F2B2FA82F21A
:100EA00042F02002520901D02A6800E06A6A93FAEF
:100EB000A3F3B3FA83F303F01F039840024223D154
:100EC0000120CCE796FAA6F2B2FA82F242F02002B2
:100ED000520901D02A6800E06A6A96FAA6F3B3FACA
:100EE00083F303F01F03984002420DD10120B6E7BF
:100EF0006A6A9CFAACF3B3FA83F303F01F039840D9
:100F0000024201D10120AAE7686820F003000843EB
:100F10006860FFF7F1FE0646606801280AD00228E3
:100F200015D021E025E0FFF7E7FE801B404501D901
:100F3000032094E76868C0F381000128F3D1ADE095
:100F4000FFF7DAFE801B404501D9032087E7686878
:100F5000C0F381000228F3D1A0E0FFF7CDFE801B93
:100F6000404501D903207AE7686810F00C0FF4D1EE
:100F700094E02178890705D56968A26821F0F0011D
:100F8000114369602178C90779D0616801290BD0C4
:100F900002291FD09CFAACF2B2FA82F242F020028F
:100FA00052092DD02A682CE093FAA3F2B2FA82F209
:100FB00042F02002520901D02A6800E06A6A93FADE
:100FC000A3F3B3FA83F303F01F039840024223D143
:100FD000012044E796FAA6F2B2FA82F242F0200229
:100FE000520901D02A6800E06A6A96FAA6F3B3FAB9
:100FF00083F303F01F03984002420DD101202EE736
:101000006A6A9CFAACF3B3FA83F303F01F039840C7
:10101000024201D1012022E7686820F00300084362
:101020006860FFF769FE06466068012809D002285B
:1010300014D020E0FFF760FE801B404501D903205B
:101040000DE76868C0F381000128F3D117E0FFF7CE
:1010500053FE801B404501D9032000E76868C0F3B8
:1010600081000228F3D10AE0FFF746FE801B4045CD
:1010700001D90320F3E6686810F00C0FF4D1D9F819
:10108000000020F007003843C9F80000D9F800003C
:1010900000F00700B84201D00120E0E620784007C8
:1010A00005D56868E16820F4E0600843686020784E
:1010B000000706D56868216920F4605040EAC10045
:1010C00068600020FFF738FE0020C8E600200240DC
:1010D0000010024000B500F043F808494968F022CA
:1010E00092FAA2F201F0F001B2FA82F2D140044A7F
:1010F000515CC8400349086000BD00000010024078
:10110000802700080000002000B5FFF7E3FF074933
:1011100049684FF4E06292FAA2F201F4E061B2FA97
:1011200082F2D140024A515CC84000BD001002402A
:101130008027000800B5FFF7CDFF074949684FF445
:10114000605292FAA2F201F46051B2FA82F2D140F6
:10115000024A515CC84000BD0010024080270008D0
:1011600010B585B01AA0D0E90031D0E90220CDE950
:101170000131CDE903201AA000680090194B59688D
:10118000194801F00C02042A1DD0082A1BD14FF483
:10119000701494FAA4F401F47012B4FA84F4E240E6
:1011A00001ACA25CC90310D559684FF4003393FA1F
:1011B000A3F301F40031B3FA83F3D9401DF8011011
:1011C000B0FBF1F0504305B010BD08485043FAE7BA
:1011D00002030405060708090A0B0C0D0E0F101078
:1011E000010200000010024000127A0000093D00D8
:1011F0002DE9F84F0446F94D20784FF00106C0075D
:1012000075D068687704C0F38100012807D068684A
:10121000C0F3810002281DD16868C0031AD597FA6F
:10122000A7F0B0FA80F040F02000400901D0286813
:1012300000E0686A97FAA7F1B1FA81F101F01F02A4
:1012400006FA02F1084252D0606800284FD101200E
:10125000BDE8F88F286820F480302860286820F4E2
:1012600080202860FFF748FD804607E0FFF744FD37
:10127000A0EB0800642801D90320E9E797FAA7F05A
:10128000B0FA80F040F02000400901D0286800E06A
:10129000686A97FAA7F1B1FA81F101F01F0106FA25
:1012A00001F10842E2D16068B0F5803F11D0A8B1E9
:1012B000B0F5A02F1CD0286820F480302860286862
:1012C00020F4802028606068C8B3FFF715FD8046D1
:1012D0001FE0286840F480302860F4E7286820F494
:1012E00080302860286820F480202860EBE748E000
:1012F000286840F480202860286840F48030286006
:10130000E1E7FFF7F9FCA0EB0800642801D903200E
:101310009EE797FAA7F0B0FA80F040F0200040096D
:1013200001D0286800E0686A97FAA7F1B1FA81F164
:1013300001F01F0106FA01F10842E2D021E0FFE7C7
:10134000FFF7DAFC804607E0FFF7D6FCA0EB0800C9
:10135000642801D903207BE797FAA7F0B0FA80F060
:1013600040F02000400901D0286800E0686A97FA40
:10137000A7F1B1FA81F101F01F0106FA01F108426B
:10138000E2D12078DFF8588280074FF0000B4FF051
:10139000020732D568684FF0F80A10F00C0F07D03A
:1013A0006868C0F38100022828D16868C00325D48A
:1013B00097FAA7F0B0FA80F040F02000400901D081
:1013C000286800E0686A97FAA7F1B1FA81F101F0A4
:1013D0001F0106FA01F1084204D02069012801D05A
:1013E000012035E728689AFAAAF26169B2FA82F216
:1013F00020F0F8009140084328605CE0206990B339
:1014000096FAA6F0B0FA80F048F82060FFF774FC76
:10141000814607E0FFF770FCA0EB0900022801D924
:10142000032015E797FAA7F0B0FA80F040F020000B
:10143000400901D0286800E0686A97FAA7F1B1FA7C
:1014400081F101F01F0106FA01F10842E2D028689B
:101450009AFAAAF26169B2FA82F220F0F800914099
:101460000843286027E0FFE796FAA6F0B0FA80F07C
:1014700048F820B0FFF740FC814607E0FFF73CFC4E
:10148000A0EB0900022801D90320E1E697FAA7F0B2
:10149000B0FA80F040F02000400901D0286800E058
:1014A000686A97FAA7F1B1FA81F101F01F0106FA13
:1014B00001F10842E2D12078000770D5A069C0B3DD
:1014C00096FAA6F0B0FA80F008EB8000C0F88064CD
:1014D000FFF712FC814607E0FFF70EFCA0EB0900C6
:1014E000022801D90320B3E697FAA7F0B0FA80F0FA
:1014F00040F06000B6EB501F01D128680BE097FA6E
:10150000A7F0B0FA80F040F06000B7EB501F01D1B7
:10151000286A00E0686A97FAA7F1B1FA81F101F050
:101520001F0206FA02F10842D6D00120FFF7C3FAE3
:1015300035E0FFE796FAA6F0B0FA80F008EB8000FD
:10154000C0F880B4FFF7D8FB814607E0FFF7D4FB73
:10155000A0EB0900022801D9032079E697FAA7F049
:10156000B0FA80F040F06000B6EB501F01D128685F
:101570000BE097FAA7F0B0FA80F040F06000B7EB0C
:10158000501F01D1286A00E0686A97FAA7F1B1FA02
:1015900081F101F01F0206FA02F10842D6D120784B
:1015A000400770D5E86940F08050E861E86900F0D4
:1015B00080500090DFF82CA0DAF8000040F4807032
:1015C000CAF80000FFF798FB81460DE0FFF794FB97
:1015D000A0EB0900642807D9032039E60010024077
:1015E0000000424200700040DAF80000C005EDD56E
:1015F000286A20F001002862286A20F0040028628E
:10160000FFF77AFB814641F2883A07E0FFF774FB67
:10161000A0EB0900504501D9032019E697FAA7F07D
:10162000B0FA80F040F04000B6EB501F01D12868BE
:101630000BE097FAA7F0B0FA80F040F04000B7EB6B
:10164000501F01D1286A00E0686A97FAA7F1B1FA41
:1016500081F101F01F0106FA01F10842D6D1E068DC
:10166000012811D0A8B105281CD0286A20F001005B
:101670002862286A20F004002862E068C8B3FFF7F7
:101680003BFB81461FE06EE0286A40F001002862C3
:10169000F3E7286A20F001002862286A20F004009D
:1016A0002862EAE7286A40F004002862286A40F0CD
:1016B00001002862E1E7FFF71FFBA0EB090050459E
:1016C00001D90320C4E597FAA7F0B0FA80F040F002
:1016D0004000B6EB501F01D128680CE097FAA7F044
:1016E000B0FA80F040F04000B7EB501F02D1286AFA
:1016F00001E00BE0686A97FAA7F1B1FA81F101F015
:101700001F0206FA02F10842D5D02CE0FFF7F4FAE6
:10171000814607E0FFF7F0FAA0EB0900504501D938
:10172000032095E597FAA7F0B0FA80F040F040006A
:10173000B6EB501F01D128680BE097FAA7F0B0FA7A
:1017400080F040F04000B7EB501F01D1286A00E064
:10175000686A97FAA7F1B1FA81F101F01F0206FA5F
:1017600002F10842D6D1E06980B36968C1F3810112
:10177000022970D04FF080794FF00077022809D00D
:1017800099FAA9F0B0FA80F048F820B0FFF7B4FA5F
:10179000044668E099FAA9F0B0FA80F048F820B061
:1017A000FFF7AAFA824607E0FFF7A6FAA0EB0A00C5
:1017B000022801D903204BE597FAA7F0B0FA80F090
:1017C00040F02000400902D0286801E060E0686A2B
:1017D00097FAA7F1B1FA81F101F01F0106FA01F1C0
:1017E0000842E1D1206AB0F5803F05D16868A16860
:1017F00020F4003008436860D4E9080108436968B0
:1018000021F474110843686099FAA9F0B0FA80F0E5
:1018100048F82060FFF770FA044606E0FFF76CFA1C
:10182000001B022801D9032012E597FAA7F0B0FAAD
:1018300080F040F02000400901D0296800E0696A8A
:1018400097FAA7F0B0FA80F000F01F0006FA00F057
:101850000142E3D01CE01DE0FFF74EFA001B022816
:1018600001D90320F4E497FAA7F0B0FA80F040F031
:101870002000400901D0296800E0696A97FAA7F0C2
:10188000B0FA80F000F01F0006FA00F00142E3D148
:101890000020DDE40120DBE44FF0E021042804D047
:1018A000086920F0040008617047086940F00400EE
:1018B00008617047704710B5401EB0F1807F01D3BA
:1018C000012010BD4FF0E02460610F21601700F08F
:1018D000F9F80020A06107202061002010BD10B59C
:1018E000FFF7E8FF10BD70B50446002C04D094F853
:1018F0003900002510B106E0012070BD84F8385091
:10190000204600F021F8022084F839002068C168E0
:1019100021F40051C160204600F03EF920680169C1
:1019200021F4904101612068416921F02A0141615F
:101930002068C16841F40051C160E563012084F86A
:101940003900002070BD000010B586B00068114954
:1019500088421DD11048816941F4804181618069CC
:1019600000F4804001904FF4007002900220039038
:1019700003200590094C02A92046FFF7A7F821157E
:10198000029100210391049102A92046FFF79EF8DD
:1019900006B010BD003801400010024000080140B0
:1019A0002DE9F04104460D46984694F83900012887
:1019B00004D0222802D00220BDE8F0819DB192B16E
:1019C00094F83800012810D0012684F838600027E8
:1019D000E76394F83900222809D0122084F83900EE
:1019E000A284E2842EE00120E6E70220E4E7322030
:1019F00084F83900F4E7401EE084A068B0F5805F09
:101A000008D0434600228021204600F04BF9A8B1BF
:101A10000320D1E7434600228021204600F042F90E
:101A200008B10320C8E728882168C0F3080048608F
:101A3000206908B16D1C05E0AD1C03E0216815F8B4
:101A4000010B4860E08C0028D5D14346002240219C
:101A5000204600F027F908B10320ADE794F83900DB
:101A6000322805D084F8396084F838700020A3E764
:101A7000222084F83900F7E7FEE7000082B00D4825
:101A8000816941F004018161806900F004000190E6
:101A90000A48094901604FF4E13141600021816049
:101AA000C16001610C2242618161C16102B0FFF736
:101AB0001ABF000000100240003801400C00002056
:101AC000FEE770470907090E002806DA00F00F004C
:101AD00000F1E02080F8141D704700F1E02080F84C
:101AE0000014704710B5FFF70DF9BDE81040FFF77F
:101AF000F6BE30B58FB0012005900004069000249A
:101B0000079402250C950D904FF4E0100E9005A857
:101B1000FFF76EFB0F20009001950294680203907E
:101B2000049402216846FFF779F9FFF7D3FA4FF4DE
:101B30007A71B0FBF1F0FFF7BEFE0420FFF7ACFEB8
:101B400000221146501EFFF737F90FB030BD0000DC
:101B50000D48016841F00101016041680B4A1140E4
:101B6000416001680A4A11400160016821F4802146
:101B70000160416821F4FE0141604FF41F01816062
:101B80000449C00308607047001002400000FFF8DD
:101B9000FFFFF6FE08ED00E02DE9F0410446206865
:101BA0000169E26821F4405111430161A168206993
:101BB0000143606901432068C26841F20C639A43A3
:101BC0000A43C26020684169A26921F4407111434F
:101BD00041613349206864253226884230D1FFF7BD
:101BE000A9FA00EBC00101EB001061688900B0FBAD
:101BF000F1F0B0FBF5F7FFF79DFA00EBC00101EB48
:101C0000001061688900B0FBF1F8FFF793FA00EB70
:101C1000C00101EB001061688900B0FBF1F0B0FB7E
:101C2000F5F06FF01801484308EB800006EB001058
:101C3000B0FBF5F0216867F31F108860BDE8F08104
:101C4000FFF762FA00EBC00101EB00106168890048
:101C5000B0FBF1F0B0FBF5F7FFF756FA00EBC0016F
:101C600001EB001061688900B0FBF1F8FFF74CFA56
:101C700000EBC00101EB001061688900B0FBF1F0DE
:101C8000B0FBF5F06FF01801484308EB800006EB5D
:101C90000010B0FBF5F0216867F31F108860CDE7F6
:101CA000003801402DE9F04704460F4692461D4694
:101CB000FFF722F806464FF000084FF00109BAF18D
:101CC000000F23D04AE0681C20D025B1FFF714F89C
:101CD000801BA8421AD92068C16821F08001C16028
:101CE0002068C16821F02001C1602068C16821F42A
:101CF0008071C1602068416921F00101416184F86F
:101D0000399084F838800320BDE8F08720680068A7
:101D100037EA0000D7D126E0681C1FD025B1FEF7B6
:101D2000EBFF801BA84219D92068C16821F080010F
:101D3000C1602068C16821F02001C1602068C168CD
:101D400021F48071C1602068416921F00101416185
:101D500084F8399084F838800320D5E7206800683B
:101D600037EA0000D8D00020CEE7FEE70FB4054BDD
:101D700010B503A9044A029800F0CAF810BC5DF837
:101D800014FB0000412600080800002002E008C8FB
:101D9000121F08C1002AFAD170477047002001E0E5
:101DA00001C1121F002AFBD1704700002DE9FF5F1F
:101DB000DDE90220010DDDF838B0024318D044F609
:101DC0001050A1F2FF3141430D140F98012820D08B
:101DD000A5EB0B00401C5FEA000A4FF00004474EE1
:101DE000DFF81C91A046504616D5CAF1000728E03E
:101DF0000F98012443A2012808D0002100980F9BCE
:101E0000C0E90021C0E90243BDE8FF9F6FEA0B0172
:101E1000F4E7CBF10000DEE7074612E0F80707D051
:101E20002246334640464946FEF787FB80468946B0
:101E30002246334610461946FEF77FFB04460E46FF
:101E40007F10002FEAD1DDE90201BAF1000F42460E
:101E50004B4602DAFEF771FB01E0FEF7E0FB0446B9
:101E60000E460022284BFEF761FC03D84FF0FF30EE
:101E7000014607E00022254B20463146FEF7B6FA20
:101E8000FEF73CFC102409E0002C0ADB0A220023A8
:101E9000FEF7E7F9019B30321A55641E50EA010241
:101EA000F2D1641C019AC4F1110314440F9A012A5F
:101EB00003D0012208430DD10AE0084304D00020DA
:101EC0004FF0110B0F9080E7A3EB0B056D1E0DE09B
:101ED0005B4504DD4FF0000205F1010504E003DA83
:101EE0004FF00002A5F10105002AECD000980F99EF
:101EF000C0E90231C0E9004586E700000000244047
:101F00000000F03F300000000000F0430000E03F20
:101F10002DE9FF4F95B09B468946064600250FE206
:101F2000252877D100242746F84A0121059400E0AE
:101F3000044316F8013F203B01FA03F01042F7D1A9
:101F400030782A2811D06FF02F033078A0F13002BA
:101F5000092A16D8059A44F0020402EB820203EB28
:101F600042021044761C0590EFE759F8042B0592C5
:101F7000002A03DA504244F40054059044F002046D
:101F8000761C30782E2816D116F8010F44F0040480
:101F90002A280DD06FF02F023078A0F13003092BE2
:101FA00009D807EB870302EB4303C718761CF3E756
:101FB00059F8047B761C30786C280FD006DC4C284E
:101FC00017D068280DD06A2814D104E0742810D0E6
:101FD0007A280FD10DE044F400140AE044F4801490
:101FE00001E044F440147278824202D104F5801476
:101FF000761C761C307866280BD013DC582877D0F6
:1020000009DC002875D04528F6D04628F4D04728AA
:102010001AD19DE118E0632835D0642879D065286D
:1020200012D195E1702873D008DC6728F1D06928B7
:102030006FD06E280DD06F2806D1B5E073282CD054
:10204000752875D0782874D05A46179990476D1C1A
:1020500075E1C4F30250022809D003280DD0D9F845
:10206000001004280DD00D6009F1040967E1D9F8CA
:102070000010EA17C1E90052F6E7D9F800100D8008
:10208000F2E70D70F0E719F8041B8DF8001000203E
:102090008DF80100EA46012003E059F804AB4FF047
:1020A000FF3061074FF0000102D40DE008F101019B
:1020B0008846B9420FDA8045F8DB1AF80810002983
:1020C000F4D108E008F1010188468142FADB1AF8F0
:1020D00008100029F6D105985B46A0EB08072146B9
:1020E0003846179A00F094FA284400EB080507E0F8
:1020F0004DE029E10DE01AF8010B5A461799904777
:10210000B8F10108F7D25B4621463846179A13E129
:1021100042E00A220092C4F302524FF0000A022A5F
:1021200008D059F804CB032A4FEAEC710AD00DE02D
:1021300029E02AE009F1070121F00702F2E802C1D3
:10214000914609E00FFA8CFC4FEAEC71042A03D1A6
:102150004FFA8CFC4FEAEC71002907DA0A4600219D
:10216000DCF1000C61EB02012D2202E0220504D516
:102170002B228DF80420012203E0E20701D0202267
:10218000F7E7904659E00A2102E010220DE0102105
:102190004FF0000A00910BE010224FF0000A44F0CB
:1021A00004040827009203E008224FF0000A00927E
:1021B000C4F30252022A05D059F804CB0021032AA5
:1021C00008D009E009F1070121F00702F2E802C195
:1021D000914605E01FFA8CFC042A01D10CF0FF0C9B
:1021E0004FF00008220728D5702806D0009B83F006
:1021F000100353EA0A0305D00EE040228DF80420B4
:10220000012208E05CEA010206D030228DF80420A9
:102210008DF8050002229046009B83F0080353EAE4
:102220000A030AD15CEA010201D1620705D5302216
:102230008DF804204FF001087F1E582804D034A0E8
:1022400003900EA802900DE036A0F9E753466046D1
:10225000009AFEF706F884460398825C0298401EB6
:10226000029002705CEA0100F0D1029806A9081AF7
:1022700000F1200A600702D524F4803400E0012731
:10228000574502DDA7EB0A0000E0002000EB0A0141
:10229000009005984144401A0590E00306D45B463F
:1022A0002146179A059800F0B3F90544002706E087
:1022B00001A85A46C05D179990476D1C7F1C474581
:1022C000F6DBE0030CD55B462146179A059800F033
:1022D0009FF9054404E030205A46179990476D1C39
:1022E0000099481E00900029F5DC08E00298029948
:1022F0005A460078491C0291179990476D1CBAF113
:102300000001AAF1010AF1DC65E1000009280100E1
:10231000303132333435363738396162636465665B
:10232000000000003031323334353637383941421D
:10233000434445460000000000F058F90544761C6F
:10234000307800287FF4ECAD19B02846BDE8F08F56
:10235000620700D4062709F1070222F0070CFCE807
:102360000223E14603F000485FEA080C02D00FF2B6
:10237000702C0DE05FEA045C02D50FF2682C07E0D8
:102380005FEAC47C02D00FF2602C01E0AFF2700C67
:102390004FF0FF3823F00043CDF850C065280CD033
:1023A00006DC452809D046281DD047283DD13DE010
:1023B000662818D067287ED138E00021112F01DB74
:1023C000112000E0781CCDE9000106A90EA8FFF756
:1023D000EDFCDDE90F010E9A03910021009207F157
:1023E000010A04914DE04FF000400097CDE9011043
:1023F00006A90EA8FFF7DAFCDDE90F0203920E9B97
:1024000011990022DDF80CA00093049211B9791CF7
:1024100000EB010AB7EB0A0004D4C0F1FF3007F16A
:10242000010A0490AAEB0700019044E0012F00DAB2
:1024300001270021112F01DD112000E03846CDE9F0
:10244000000106A90EA8FFF7B1FCDDE90F010E9A05
:102450000391002104910092BA4621070CD40399FC
:10246000514500DA8A46BAF1010F05DD009AAAF15A
:102470000101515C302908D0B84202DA10F1040F92
:1024800006DA0121CDE9011015E0AAF10101E9E721
:10249000002805DC049901440491AAEB000102E044
:1024A000411C514500DD8A460499401A401C0190A8
:1024B0004FF000400290200704D40198504501DB02
:1024C000CDF8048000208DF84F0002980DF14F07E1
:1024D000B0F1004F25D02B200E9002984FF002084B
:1024E00000280CDA404202902D200E9007E00A21CD
:1024F0000298FDF7A0FE3031029007F8011DB8F1F7
:102500000001A8F10108F2DC02980028EFD1791E41
:102510000E980870307800F0200040F0450007F871
:10252000020D12A8C01B00F107081498007800B132
:10253000012000EB0A01019801EBE071059841448C
:10254000401A401E0590E00306D45B462146179AC8
:10255000059800F05DF805441498007818B15A46C3
:10256000179990476D1CE00324D55B462146179AC6
:10257000059800F04DF805441CE00498002807DB9E
:10258000DDE90301884203DD0098405C179901E012
:10259000179930205A469047049805F10105401CD0
:1025A00004900198401E019004D12E205A4617999C
:1025B00090476D1CBAF10001AAF1010ADDDC05E0CB
:1025C00017F8010B5A46179990476D1CB8F1000196
:1025D000A8F10108F4DC5B462146179A0598ABE6A2
:1025E0002D0000002B000000200000002DE9F0412C
:1025F000044600251E461746880404D405E03946E3
:102600002020B0476D1C641EF9D52846BDE8F08136
:102610002DE9F041044600251E469046C80301D529
:10262000302700E02027880404D505E041463846DD
:10263000B0476D1C641EF9D52846BDE8F081000046
:1026400013B54FF6FF73012269460248FFF7A8F958
:1026500000981CBD0C0000201CB5FEF75BFBFFF7CB
:1026600048FAFFF70BFA1DA0FFF780FB4FF47A76CC
:1026700005E021A0FFF77AFB3046FEF71CFAFEF7D3
:102680001BF90028F5D123A0FFF770FB6846FEF781
:10269000ADF92AA0FFF76AFB00246D462DA0295D45
:1026A000FFF764FB641CE4B2082CF7D32BA0FFF700
:1026B0005DFB6846FEF791F86420FEF7FCF93446AE
:1026C000FEF7CBF8FDF788FD02460B4624A0FFF786
:1026D0004DFB2046FEF7EFF9F2E700004453313896
:1026E000423230CEC2B6C8B4ABB8D0C6F7D0C5CF30
:1026F000A2B6C1C8A10A000044533138423230CEDC
:10270000C2B6C8B4ABB8D0C6F7B2BBB4E6D4DA0A26
:1027100000000000BCECB2E2B5BD44533138423297
:1027200030CEC2B6C8B4ABB8D0C6F7A3ACB2A2B371
:10273000F5CABCBBAFB3C9B9A60A000044533138CF
:10274000423230B5C4D0F2C1D0BAC5CAC7A3BA208C
:1027500030780000252E3258000000000A000000EA
:10276000BBF1C8A1B8C3D0F2C1D0BAC5C6F7BCFE90
:10277000B5C4CEC2B6C8A3BA252E31660A00000081
:102780000000000001020304010203040607080917
:10279000B0270008000000200C0000008C1D00087D
:1027A000BC2700080C000020441000009C1D0008FD
:0C27B00000A24A0400000000000000002D
:0400000508000131BD
:00000001FF
